{
  "contractName": "Pauseable",
  "abi": [
    {
      "constant": true,
      "inputs": [],
      "name": "beneficiary",
      "outputs": [
        {
          "name": "",
          "type": "address"
        }
      ],
      "payable": false,
      "stateMutability": "view",
      "type": "function"
    },
    {
      "constant": true,
      "inputs": [],
      "name": "owner",
      "outputs": [
        {
          "name": "",
          "type": "address"
        }
      ],
      "payable": false,
      "stateMutability": "view",
      "type": "function"
    },
    {
      "inputs": [],
      "payable": false,
      "stateMutability": "nonpayable",
      "type": "constructor"
    },
    {
      "constant": false,
      "inputs": [
        {
          "name": "_value",
          "type": "uint256"
        }
      ],
      "name": "withdrawFunds",
      "outputs": [],
      "payable": false,
      "stateMutability": "nonpayable",
      "type": "function"
    },
    {
      "constant": false,
      "inputs": [],
      "name": "pause",
      "outputs": [],
      "payable": false,
      "stateMutability": "nonpayable",
      "type": "function"
    },
    {
      "constant": false,
      "inputs": [],
      "name": "unPause",
      "outputs": [],
      "payable": false,
      "stateMutability": "nonpayable",
      "type": "function"
    },
    {
      "constant": false,
      "inputs": [],
      "name": "emergencyWithdrawal",
      "outputs": [],
      "payable": false,
      "stateMutability": "nonpayable",
      "type": "function"
    }
  ],
  "bytecode": "0x608060405234801561001057600080fd5b506000600260146101000a81548160ff02191690831515021790555033600160006101000a81548173ffffffffffffffffffffffffffffffffffffffff021916908373ffffffffffffffffffffffffffffffffffffffff1602179055506103c68061007c6000396000f3fe608060405234801561001057600080fd5b50600436106100625760003560e01c8063155dd5ee1461006757806338af3eed146100955780635b0a3843146100df5780638456cb59146100e95780638da5cb5b146100f3578063f7b188a51461013d575b600080fd5b6100936004803603602081101561007d57600080fd5b8101908080359060200190929190505050610147565b005b61009d61016a565b604051808273ffffffffffffffffffffffffffffffffffffffff1673ffffffffffffffffffffffffffffffffffffffff16815260200191505060405180910390f35b6100e7610190565b005b6100f161020c565b005b6100fb6102c0565b604051808273ffffffffffffffffffffffffffffffffffffffff1673ffffffffffffffffffffffffffffffffffffffff16815260200191505060405180910390f35b6101456102e6565b005b60001515600260149054906101000a900460ff1615151461016757600080fd5b50565b600260009054906101000a900473ffffffffffffffffffffffffffffffffffffffff1681565b60011515600260149054906101000a900460ff161515146101b057600080fd5b600260009054906101000a900473ffffffffffffffffffffffffffffffffffffffff1673ffffffffffffffffffffffffffffffffffffffff163373ffffffffffffffffffffffffffffffffffffffff161461020a57600080fd5b565b600160009054906101000a900473ffffffffffffffffffffffffffffffffffffffff1673ffffffffffffffffffffffffffffffffffffffff163373ffffffffffffffffffffffffffffffffffffffff161461026657600080fd5b60001515600260149054906101000a900460ff1615151461028657600080fd5b6001600260146101000a81548160ff02191690831515021790555060011515600260149054906101000a900460ff161515146102be57fe5b565b600160009054906101000a900473ffffffffffffffffffffffffffffffffffffffff1681565b600160009054906101000a900473ffffffffffffffffffffffffffffffffffffffff1673ffffffffffffffffffffffffffffffffffffffff163373ffffffffffffffffffffffffffffffffffffffff161461034057600080fd5b60011515600260149054906101000a900460ff1615151461036057600080fd5b6000600260146101000a81548160ff02191690831515021790555060001515600260149054906101000a900460ff1615151461039857fe5b56fea165627a7a723058209bf4de435370e7375bffe0ea18349e17cf9306d40c677dd7cf45fcb35b1cd1170029",
  "source": "pragma solidity 0.5.8;\n\n\ncontract Pauseable {\n\n\t//users\n\tmapping (address => uint) balances;\n\t\n\taddress public owner;\n\taddress public beneficiary;\n\n\tbool private contractPaused;\n\n\tmodifier isNotPaused() { \n\t\trequire (contractPaused == false); \n\t\t_; \n\t}\n\n\tmodifier isPaused() { \n\t\trequire (contractPaused == true); \n\t\t_; \n\t}\n\n\tmodifier isAdmin() { \n\t\trequire (msg.sender == owner); \n\t\t_; \n\t}\n\n\tmodifier isAuthorized() { \n\t\trequire (msg.sender == beneficiary); \n\t\t_; \n\t}\t\n\n\tconstructor() public {\n\t\tcontractPaused = false;\n\t\towner = msg.sender;\n\t\t// set beneficiary or provide method to select one\n\t}\n\n\n\n\t// REGULAR STATE\n\t// public access\n    \n    function withdrawFunds(uint _value) isNotPaused public {\n        // public user withdraw method\n    }\n    \n\n\n    // pause / unpause\n    // admin\n\n    function pause() isAdmin isNotPaused public {\n    \tcontractPaused = true;\n    \tassert (contractPaused == true);\n    }\n\n    function unPause() isAdmin isPaused public {\n    \tcontractPaused = false;\n    \tassert (contractPaused == false);\n    }   \n\n    // authorized individuals\n    function emergencyWithdrawal() isPaused isAuthorized public {\n    \t// send funds to beneficiary\n    }\n    \n    \n\n    \n}",
  "sourcePath": "/Users/ibek/Documents/code/smart-contracts-best-practices/pausable/contracts/Pauseable.sol",
  "compiler": {
    "name": "solc",
    "version": "0.5.8+commit.23d335f2.Emscripten.clang"
  },
  "schemaVersion": "3.0.11",
  "updatedAt": "2019-08-14T18:16:10.904Z",
  "devdoc": {
    "methods": {}
  },
  "userdoc": {
    "methods": {}
  }
}