{
  "contractName": "Functionality3",
  "abi": [
    {
      "constant": false,
      "inputs": [
        {
          "name": "_uintVariableName",
          "type": "string"
        },
        {
          "name": "_value",
          "type": "uint256"
        }
      ],
      "name": "setUintValue",
      "outputs": [],
      "payable": false,
      "stateMutability": "nonpayable",
      "type": "function"
    },
    {
      "constant": true,
      "inputs": [
        {
          "name": "_uintVariableName",
          "type": "string"
        }
      ],
      "name": "getUintValue",
      "outputs": [
        {
          "name": "",
          "type": "uint256"
        }
      ],
      "payable": false,
      "stateMutability": "view",
      "type": "function"
    },
    {
      "inputs": [],
      "payable": false,
      "stateMutability": "nonpayable",
      "type": "constructor"
    },
    {
      "constant": false,
      "inputs": [
        {
          "name": "_owner",
          "type": "address"
        }
      ],
      "name": "init",
      "outputs": [],
      "payable": false,
      "stateMutability": "nonpayable",
      "type": "function"
    }
  ],
  "bytecode": "0x608060405234801561001057600080fd5b506100203361002560201b60201c565b6100a4565b60001515600460149054906101000a900460ff1615151461004557600080fd5b80600460006101000a81548173ffffffffffffffffffffffffffffffffffffffff021916908373ffffffffffffffffffffffffffffffffffffffff1602179055506001600460146101000a81548160ff02191690831515021790555050565b61040a806100b36000396000f3fe608060405234801561001057600080fd5b50600436106100415760003560e01c806319ab453c14610046578063522ea4c81461008a5780635b6f30251461014f575b600080fd5b6100886004803603602081101561005c57600080fd5b81019080803573ffffffffffffffffffffffffffffffffffffffff16906020019092919050505061021e565b005b61014d600480360360408110156100a057600080fd5b81019080803590602001906401000000008111156100bd57600080fd5b8201836020820111156100cf57600080fd5b803590602001918460018302840111640100000000831117156100f157600080fd5b91908080601f016020809104026020016040519081016040528093929190818152602001838380828437600081840152601f19601f8201169050808301925050505050505091929192908035906020019092919050505061029d565b005b6102086004803603602081101561016557600080fd5b810190808035906020019064010000000081111561018257600080fd5b82018360208201111561019457600080fd5b803590602001918460018302840111640100000000831117156101b657600080fd5b91908080601f016020809104026020016040519081016040528093929190818152602001838380828437600081840152601f19601f82011690508083019250505050505050919291929050505061036c565b6040518082815260200191505060405180910390f35b60001515600460149054906101000a900460ff1615151461023e57600080fd5b80600460006101000a81548173ffffffffffffffffffffffffffffffffffffffff021916908373ffffffffffffffffffffffffffffffffffffffff1602179055506001600460146101000a81548160ff02191690831515021790555050565b600460009054906101000a900473ffffffffffffffffffffffffffffffffffffffff1673ffffffffffffffffffffffffffffffffffffffff163373ffffffffffffffffffffffffffffffffffffffff16146102f757600080fd5b600181016000836040518082805190602001908083835b60208310610331578051825260208201915060208101905060208303925061030e565b6001836020036101000a0380198251168184511680821785525050505050509050019150509081526020016040518091039020819055505050565b600080826040518082805190602001908083835b602083106103a35780518252602082019150602081019050602083039250610380565b6001836020036101000a038019825116818451168082178552505050505050905001915050908152602001604051809103902054905091905056fea165627a7a723058204db2bce82a50f4b1946d139be8871bed79523fa4a1a4e97cd554931d2fefe1280029",
  "source": "pragma solidity 0.5.8;\n\nimport \"./storage.sol\";\nimport \"./functionality-2.sol\";\n\n// this contract will have to update the owner functionality in proxy\n// also introduces the init() method that can handle storage updates in proxy\n// init method should be called once\n\ncontract Functionality3 is Functionality2 {\n\n\n\tconstructor() public {\n\t\tinit(msg.sender);\n\t}\n\n\n\tfunction init(address payable _owner) public {\n\t\trequire(_initialized == false);\n\t\towner = _owner;\n\t\t_initialized = true;\n\t}\n\n}\n",
  "sourcePath": "/Users/esengulov/Documents/code/smart-contracts-best-practices/upgradeable2/contracts/functionality-3.sol",
  "compiler": {
    "name": "solc",
    "version": "0.5.8+commit.23d335f2.Emscripten.clang"
  },
  "schemaVersion": "3.0.11",
  "updatedAt": "2019-08-14T09:57:10.754Z",
  "devdoc": {
    "methods": {}
  },
  "userdoc": {
    "methods": {}
  }
}