{
  "contractName": "Functionality3",
  "abi": [
    {
      "inputs": [],
      "payable": false,
      "stateMutability": "nonpayable",
      "type": "constructor"
    },
    {
      "constant": false,
      "inputs": [
        {
          "name": "_owner",
          "type": "address"
        }
      ],
      "name": "init",
      "outputs": [],
      "payable": false,
      "stateMutability": "nonpayable",
      "type": "function"
    },
    {
      "constant": true,
      "inputs": [
        {
          "name": "_uintVariableName",
          "type": "string"
        }
      ],
      "name": "getUintValue",
      "outputs": [
        {
          "name": "",
          "type": "uint256"
        }
      ],
      "payable": false,
      "stateMutability": "view",
      "type": "function"
    },
    {
      "constant": false,
      "inputs": [
        {
          "name": "_uintVariableName",
          "type": "string"
        },
        {
          "name": "_value",
          "type": "uint256"
        }
      ],
      "name": "setUintValue",
      "outputs": [],
      "payable": false,
      "stateMutability": "nonpayable",
      "type": "function"
    }
  ],
  "bytecode": "0x608060405234801561001057600080fd5b506100203361002560201b60201c565b6100a4565b60001515600460149054906101000a900460ff1615151461004557600080fd5b80600460006101000a81548173ffffffffffffffffffffffffffffffffffffffff021916908373ffffffffffffffffffffffffffffffffffffffff1602179055506001600460146101000a81548160ff02191690831515021790555050565b610407806100b36000396000f3fe608060405234801561001057600080fd5b50600436106100415760003560e01c806319ab453c14610046578063522ea4c81461008a5780635b6f30251461014f575b600080fd5b6100886004803603602081101561005c57600080fd5b81019080803573ffffffffffffffffffffffffffffffffffffffff16906020019092919050505061021e565b005b61014d600480360360408110156100a057600080fd5b81019080803590602001906401000000008111156100bd57600080fd5b8201836020820111156100cf57600080fd5b803590602001918460018302840111640100000000831117156100f157600080fd5b91908080601f016020809104026020016040519081016040528093929190818152602001838380828437600081840152601f19601f8201169050808301925050505050505091929192908035906020019092919050505061029d565b005b6102086004803603602081101561016557600080fd5b810190808035906020019064010000000081111561018257600080fd5b82018360208201111561019457600080fd5b803590602001918460018302840111640100000000831117156101b657600080fd5b91908080601f016020809104026020016040519081016040528093929190818152602001838380828437600081840152601f19601f820116905080830192505050505050509192919290505050610369565b6040518082815260200191505060405180910390f35b60001515600460149054906101000a900460ff1615151461023e57600080fd5b80600460006101000a81548173ffffffffffffffffffffffffffffffffffffffff021916908373ffffffffffffffffffffffffffffffffffffffff1602179055506001600460146101000a81548160ff02191690831515021790555050565b600460009054906101000a900473ffffffffffffffffffffffffffffffffffffffff1673ffffffffffffffffffffffffffffffffffffffff163373ffffffffffffffffffffffffffffffffffffffff16146102f757600080fd5b806000836040518082805190602001908083835b6020831061032e578051825260208201915060208101905060208303925061030b565b6001836020036101000a0380198251168184511680821785525050505050509050019150509081526020016040518091039020819055505050565b600080826040518082805190602001908083835b602083106103a0578051825260208201915060208101905060208303925061037d565b6001836020036101000a038019825116818451168082178552505050505050905001915050908152602001604051809103902054905091905056fea165627a7a723058207bd0c2b982d785dc84bf64a739fb8728770de9f823aa523cf2a813a3e9f770680029",
  "source": "pragma solidity 0.5.8;\n\nimport \"./storage.sol\";\n\n// this contract will have to update the owner functionality in proxy\n// also introduces the init() method that can handle storage updates in proxy\n// init method should be called once\n\ncontract Functionality3 is Storage {\n\n\tmodifier onlyOwner() {\n\t\t\trequire(msg.sender == owner);\n\t\t\t_;\n\t}\n\n\tconstructor() public {\n\t\tinit(msg.sender);\n\t}\n\n\n\tfunction init(address payable _owner) public {\n\t\trequire(_initialized == false);\n\t\towner = _owner;\n\t\t_initialized = true;\n\t}\n\n\n\tfunction getUintValue(string memory _uintVariableName) public view returns(uint256) {\n\t\t\treturn uintStorage[_uintVariableName];\n\t}\n\n\tfunction setUintValue(string memory _uintVariableName, uint256 _value) public onlyOwner {\n\t\t\tuintStorage[_uintVariableName] = _value;\n\t}\n\n\n\n\n}\n",
  "sourcePath": "/Users/esengulov/Documents/code/smart-contracts-best-practices/upgradeable2/contracts/functionality-3.sol",
  "compiler": {
    "name": "solc",
    "version": "0.5.8+commit.23d335f2.Emscripten.clang"
  },
  "schemaVersion": "3.0.11",
  "updatedAt": "2019-08-14T09:22:00.998Z",
  "devdoc": {
    "methods": {}
  },
  "userdoc": {
    "methods": {}
  }
}