{
  "contractName": "Functionality1",
  "abi": [
    {
      "inputs": [],
      "payable": false,
      "stateMutability": "nonpayable",
      "type": "constructor"
    },
    {
      "constant": true,
      "inputs": [
        {
          "name": "_uintVariableName",
          "type": "string"
        }
      ],
      "name": "getUintValue",
      "outputs": [
        {
          "name": "",
          "type": "uint256"
        }
      ],
      "payable": false,
      "stateMutability": "view",
      "type": "function"
    },
    {
      "constant": false,
      "inputs": [
        {
          "name": "_uintVariableName",
          "type": "string"
        },
        {
          "name": "_value",
          "type": "uint256"
        }
      ],
      "name": "setUintValue",
      "outputs": [],
      "payable": false,
      "stateMutability": "nonpayable",
      "type": "function"
    }
  ],
  "bytecode": "0x608060405234801561001057600080fd5b50610339806100206000396000f3fe608060405234801561001057600080fd5b50600436106100365760003560e01c8063522ea4c81461003b5780635b6f302514610100575b600080fd5b6100fe6004803603604081101561005157600080fd5b810190808035906020019064010000000081111561006e57600080fd5b82018360208201111561008057600080fd5b803590602001918460018302840111640100000000831117156100a257600080fd5b91908080601f016020809104026020016040519081016040528093929190818152602001838380828437600081840152601f19601f820116905080830192505050505050509192919290803590602001909291905050506101cf565b005b6101b96004803603602081101561011657600080fd5b810190808035906020019064010000000081111561013357600080fd5b82018360208201111561014557600080fd5b8035906020019184600183028401116401000000008311171561016757600080fd5b91908080601f016020809104026020016040519081016040528093929190818152602001838380828437600081840152601f19601f82011690508083019250505050505050919291929050505061029b565b6040518082815260200191505060405180910390f35b600460009054906101000a900473ffffffffffffffffffffffffffffffffffffffff1673ffffffffffffffffffffffffffffffffffffffff163373ffffffffffffffffffffffffffffffffffffffff161461022957600080fd5b806000836040518082805190602001908083835b60208310610260578051825260208201915060208101905060208303925061023d565b6001836020036101000a0380198251168184511680821785525050505050509050019150509081526020016040518091039020819055505050565b600080826040518082805190602001908083835b602083106102d257805182526020820191506020810190506020830392506102af565b6001836020036101000a038019825116818451168082178552505050505050905001915050908152602001604051809103902054905091905056fea165627a7a72305820011697c45e2cdb0b8005d2b57442cdd2f98bca8327cf1ed4cdedf685c8799c7e0029",
  "source": "pragma solidity 0.5.8;\n\nimport \"./storage.sol\";\n\ncontract Functionality1 is Storage {\n\n\tmodifier onlyOwner() {\n\t\t\trequire(msg.sender == owner);\n\t\t\t_;\n\t}\n\n\tconstructor() public {\n\t\t//owner = msg.sender;\n\t}\n\n\n  function getUintValue(string memory _uintVariableName) public view returns(uint256) {\n  \t\treturn uintStorage[_uintVariableName];\n\t}\n\n  function setUintValue(string memory _uintVariableName, uint256 _value) public onlyOwner {\n  \t\tuintStorage[_uintVariableName] = _value;\n\t}\n\n\n\n}\n",
  "sourcePath": "/Users/esengulov/Documents/code/smart-contracts-best-practices/upgradeable2/contracts/functionality-1.sol",
  "compiler": {
    "name": "solc",
    "version": "0.5.8+commit.23d335f2.Emscripten.clang"
  },
  "schemaVersion": "3.0.11",
  "updatedAt": "2019-08-14T09:07:52.675Z",
  "devdoc": {
    "methods": {}
  },
  "userdoc": {
    "methods": {}
  }
}