{
  "contractName": "Functionality1",
  "abi": [
    {
      "constant": true,
      "inputs": [],
      "name": "_initialized",
      "outputs": [
        {
          "name": "",
          "type": "bool"
        }
      ],
      "payable": false,
      "stateMutability": "view",
      "type": "function"
    },
    {
      "constant": true,
      "inputs": [],
      "name": "owner",
      "outputs": [
        {
          "name": "",
          "type": "address"
        }
      ],
      "payable": false,
      "stateMutability": "view",
      "type": "function"
    },
    {
      "inputs": [],
      "payable": false,
      "stateMutability": "nonpayable",
      "type": "constructor"
    },
    {
      "constant": true,
      "inputs": [
        {
          "name": "_uintVariableName",
          "type": "string"
        }
      ],
      "name": "getUintValue",
      "outputs": [
        {
          "name": "",
          "type": "uint256"
        }
      ],
      "payable": false,
      "stateMutability": "view",
      "type": "function"
    },
    {
      "constant": false,
      "inputs": [
        {
          "name": "_uintVariableName",
          "type": "string"
        },
        {
          "name": "_value",
          "type": "uint256"
        }
      ],
      "name": "setUintValue",
      "outputs": [],
      "payable": false,
      "stateMutability": "nonpayable",
      "type": "function"
    }
  ],
  "bytecode": "0x608060405234801561001057600080fd5b5033600460006101000a81548173ffffffffffffffffffffffffffffffffffffffff021916908373ffffffffffffffffffffffffffffffffffffffff16021790555061039a806100616000396000f3fe608060405234801561001057600080fd5b506004361061004c5760003560e01c80633072cf6014610051578063522ea4c8146100735780635b6f3025146101385780638da5cb5b14610207575b600080fd5b610059610251565b604051808215151515815260200191505060405180910390f35b6101366004803603604081101561008957600080fd5b81019080803590602001906401000000008111156100a657600080fd5b8201836020820111156100b857600080fd5b803590602001918460018302840111640100000000831117156100da57600080fd5b91908080601f016020809104026020016040519081016040528093929190818152602001838380828437600081840152601f19601f82011690508083019250505050505050919291929080359060200190929190505050610264565b005b6101f16004803603602081101561014e57600080fd5b810190808035906020019064010000000081111561016b57600080fd5b82018360208201111561017d57600080fd5b8035906020019184600183028401116401000000008311171561019f57600080fd5b91908080601f016020809104026020016040519081016040528093929190818152602001838380828437600081840152601f19601f8201169050808301925050505050505091929192905050506102d6565b6040518082815260200191505060405180910390f35b61020f610348565b604051808273ffffffffffffffffffffffffffffffffffffffff1673ffffffffffffffffffffffffffffffffffffffff16815260200191505060405180910390f35b600460149054906101000a900460ff1681565b806000836040518082805190602001908083835b6020831061029b5780518252602082019150602081019050602083039250610278565b6001836020036101000a0380198251168184511680821785525050505050509050019150509081526020016040518091039020819055505050565b600080826040518082805190602001908083835b6020831061030d57805182526020820191506020810190506020830392506102ea565b6001836020036101000a0380198251168184511680821785525050505050509050019150509081526020016040518091039020549050919050565b600460009054906101000a900473ffffffffffffffffffffffffffffffffffffffff168156fea165627a7a723058203dd21c9a52a6e5dfc066b3133d6a7a9c7762b4a42dce550a5575fa2d03c1cc9e0029",
  "source": "pragma solidity 0.5.8;\n\nimport \"./storage.sol\";\n\ncontract Functionality1 is Storage {\n\n\n\t//  INHERITED FROM STORAGE\n\t// \t------------------------------------------\n\t//  mapping (string => uint) uintStorage;\n\t//  mapping (string => address) addressStorage;\n\t//  mapping (string => string) stringStorage;\n\t//  mapping (string => bool) boolStorage;\n\t//  address public owner;\n\t//  bool public _initialized;\n\n\n\n\tconstructor() public {\n\t\towner = msg.sender;\n\t}\n\n\n  \tfunction getUintValue(string memory _uintVariableName) public view returns(uint256) {\n  \t\treturn uintStorage[_uintVariableName];\n\t}\n\n  \tfunction setUintValue(string memory _uintVariableName, uint256 _value) public {\n  \t\tuintStorage[_uintVariableName] = _value;\n\t}\n\n\n\n}\t",
  "sourcePath": "/Users/ibek/Documents/code/smart-contracts-best-practices/upgradeable2/contracts/functionality-1.sol",
  "compiler": {
    "name": "solc",
    "version": "0.5.8+commit.23d335f2.Emscripten.clang"
  },
  "schemaVersion": "3.0.11",
  "updatedAt": "2019-08-04T19:30:35.703Z",
  "devdoc": {
    "methods": {}
  },
  "userdoc": {
    "methods": {}
  }
}