{
  "contractName": "Proxy",
  "abi": [
    {
      "constant": true,
      "inputs": [],
      "name": "_initialized",
      "outputs": [
        {
          "name": "",
          "type": "bool"
        }
      ],
      "payable": false,
      "stateMutability": "view",
      "type": "function"
    },
    {
      "constant": true,
      "inputs": [],
      "name": "owner",
      "outputs": [
        {
          "name": "",
          "type": "address"
        }
      ],
      "payable": false,
      "stateMutability": "view",
      "type": "function"
    },
    {
      "inputs": [
        {
          "name": "_functionalityContract",
          "type": "address"
        }
      ],
      "payable": false,
      "stateMutability": "nonpayable",
      "type": "constructor"
    },
    {
      "payable": true,
      "stateMutability": "payable",
      "type": "fallback"
    },
    {
      "constant": false,
      "inputs": [
        {
          "name": "_newFunctionalityContract",
          "type": "address"
        }
      ],
      "name": "upgrade",
      "outputs": [
        {
          "name": "",
          "type": "bool"
        }
      ],
      "payable": false,
      "stateMutability": "nonpayable",
      "type": "function"
    },
    {
      "constant": true,
      "inputs": [],
      "name": "getFuncAddress",
      "outputs": [
        {
          "name": "",
          "type": "address"
        }
      ],
      "payable": false,
      "stateMutability": "view",
      "type": "function"
    },
    {
      "constant": true,
      "inputs": [],
      "name": "getOwner",
      "outputs": [
        {
          "name": "",
          "type": "address"
        }
      ],
      "payable": false,
      "stateMutability": "view",
      "type": "function"
    }
  ],
  "bytecode": "0x608060405234801561001057600080fd5b506040516020806105058339810180604052602081101561003057600080fd5b8101908080519060200190929190505050600073ffffffffffffffffffffffffffffffffffffffff168173ffffffffffffffffffffffffffffffffffffffff16141561007b57600080fd5b80600560006101000a81548173ffffffffffffffffffffffffffffffffffffffff021916908373ffffffffffffffffffffffffffffffffffffffff16021790555050610439806100cc6000396000f3fe60806040526004361061004a5760003560e01c80630900f0101461013d5780633072cf60146101a6578063893d20e8146101d55780638da5cb5b1461022c578063df651e5e14610283575b6000600560009054906101000a900473ffffffffffffffffffffffffffffffffffffffff169050600073ffffffffffffffffffffffffffffffffffffffff16600560009054906101000a900473ffffffffffffffffffffffffffffffffffffffff1673ffffffffffffffffffffffffffffffffffffffff1614156100cd57600080fd5b60606000368080601f016020809104026020016040519081016040528093929190818152602001838380828437600081840152601f19601f820116905080830192505050505050509050600080825160208401855af43d604051816000823e8260008114610139578282f35b8282fd5b34801561014957600080fd5b5061018c6004803603602081101561016057600080fd5b81019080803573ffffffffffffffffffffffffffffffffffffffff1690602001909291905050506102da565b604051808215151515815260200191505060405180910390f35b3480156101b257600080fd5b506101bb610380565b604051808215151515815260200191505060405180910390f35b3480156101e157600080fd5b506101ea610393565b604051808273ffffffffffffffffffffffffffffffffffffffff1673ffffffffffffffffffffffffffffffffffffffff16815260200191505060405180910390f35b34801561023857600080fd5b506102416103bd565b604051808273ffffffffffffffffffffffffffffffffffffffff1673ffffffffffffffffffffffffffffffffffffffff16815260200191505060405180910390f35b34801561028f57600080fd5b506102986103e3565b604051808273ffffffffffffffffffffffffffffffffffffffff1673ffffffffffffffffffffffffffffffffffffffff16815260200191505060405180910390f35b6000600460009054906101000a900473ffffffffffffffffffffffffffffffffffffffff1673ffffffffffffffffffffffffffffffffffffffff163373ffffffffffffffffffffffffffffffffffffffff161461033657600080fd5b81600560006101000a81548173ffffffffffffffffffffffffffffffffffffffff021916908373ffffffffffffffffffffffffffffffffffffffff16021790555060019050919050565b600460149054906101000a900460ff1681565b6000600460009054906101000a900473ffffffffffffffffffffffffffffffffffffffff16905090565b600460009054906101000a900473ffffffffffffffffffffffffffffffffffffffff1681565b6000600560009054906101000a900473ffffffffffffffffffffffffffffffffffffffff1690509056fea165627a7a7230582029fc6975ccdb6dd4d20dc2ed18a13ffc539b7fa90d66e9a82ecee0bb10c5f3050029",
  "source": "pragma solidity 0.5.8;\n\nimport \"./storage.sol\";\n\ncontract Proxy is Storage {\n\n\n\t//  INHERITED FROM STORAGE\n\t// \t------------------------------------------\n\t//  mapping (string => uint) uintStorage;\n\t//  mapping (string => address) addressStorage;\n\t//  mapping (string => string) stringStorage;\n\t//  mapping (string => bool) boolStorage;\n\t//  address public owner;\n\t//  bool public _initialized;\n\n\n\taddress private functionalityContract;\n\n\tmodifier onlyOwner() {\n\t\trequire(msg.sender == owner);\n\t\t_;\n\t}  \t\n\n\tconstructor(address _functionalityContract) public {\n\t\trequire (_functionalityContract != address(0));\n\t\tfunctionalityContract = _functionalityContract;\n\t}\n\n\tfunction upgrade (address _newFunctionalityContract) public onlyOwner returns(bool) {\n\t\tfunctionalityContract = _newFunctionalityContract;\n\t\treturn true;\n\t}\n\n\tfunction getFuncAddress() public view returns(address) {\n\t\treturn functionalityContract;\n\t}\n\t\n\tfunction getOwner() public view returns(address) {\n\t\treturn owner;\n\t}\n\n\t//FALLBACK FUNCTION to pass all calls to functionlity contract\n\tfunction () payable external {\n\n\t\taddress implementation = functionalityContract;\n\t\trequire(functionalityContract != address(0));\n\t\tbytes memory data = msg.data;\n\n\t\t//DELEGATECALL EVERY FUNCTION CALL\n\t\tassembly {\n\t\t\tlet result := delegatecall(gas, implementation, add(data, 0x20), mload(data), 0, 0)\n\t\t\tlet size := returndatasize\n\t\t\tlet ptr := mload(0x40)\n\t\t\treturndatacopy(ptr, 0, size)\n\t\t\tswitch result\n\t\t\tcase 0 {revert(ptr, size)}\n\t\t\tdefault {return(ptr, size)}\n\t\t}\n\n\t}\n\n\t\n\n}\t",
  "sourcePath": "/Users/ibek/Documents/code/smart-contracts-best-practices/upgradeable2/contracts/proxy.sol",
  "compiler": {
    "name": "solc",
    "version": "0.5.8+commit.23d335f2.Emscripten.clang"
  },
  "schemaVersion": "3.0.11",
  "updatedAt": "2019-08-05T18:41:40.414Z",
  "devdoc": {
    "methods": {}
  },
  "userdoc": {
    "methods": {}
  }
}