{
  "contractName": "Proxy",
  "abi": [
    {
      "constant": true,
      "inputs": [],
      "name": "_initialized",
      "outputs": [
        {
          "name": "",
          "type": "bool"
        }
      ],
      "payable": false,
      "stateMutability": "view",
      "type": "function"
    },
    {
      "constant": true,
      "inputs": [],
      "name": "owner",
      "outputs": [
        {
          "name": "",
          "type": "address"
        }
      ],
      "payable": false,
      "stateMutability": "view",
      "type": "function"
    },
    {
      "inputs": [
        {
          "name": "_functionalityContract",
          "type": "address"
        }
      ],
      "payable": false,
      "stateMutability": "nonpayable",
      "type": "constructor"
    },
    {
      "payable": true,
      "stateMutability": "payable",
      "type": "fallback"
    },
    {
      "constant": false,
      "inputs": [
        {
          "name": "_newFunctionalityContract",
          "type": "address"
        }
      ],
      "name": "upgradeFunctionalityContract",
      "outputs": [
        {
          "name": "",
          "type": "bool"
        }
      ],
      "payable": false,
      "stateMutability": "nonpayable",
      "type": "function"
    }
  ],
  "bytecode": "0x608060405234801561001057600080fd5b506040516020806103ed8339810180604052602081101561003057600080fd5b8101908080519060200190929190505050600073ffffffffffffffffffffffffffffffffffffffff168173ffffffffffffffffffffffffffffffffffffffff16141561007b57600080fd5b80600560006101000a81548173ffffffffffffffffffffffffffffffffffffffff021916908373ffffffffffffffffffffffffffffffffffffffff16021790555050610321806100cc6000396000f3fe6080604052600436106100345760003560e01c80632b83509b146101275780633072cf60146101905780638da5cb5b146101bf575b6000600560009054906101000a900473ffffffffffffffffffffffffffffffffffffffff169050600073ffffffffffffffffffffffffffffffffffffffff16600560009054906101000a900473ffffffffffffffffffffffffffffffffffffffff1673ffffffffffffffffffffffffffffffffffffffff1614156100b757600080fd5b60606000368080601f016020809104026020016040519081016040528093929190818152602001838380828437600081840152601f19601f820116905080830192505050505050509050600080825160208401855af43d604051816000823e8260008114610123578282f35b8282fd5b34801561013357600080fd5b506101766004803603602081101561014a57600080fd5b81019080803573ffffffffffffffffffffffffffffffffffffffff169060200190929190505050610216565b604051808215151515815260200191505060405180910390f35b34801561019c57600080fd5b506101a56102bc565b604051808215151515815260200191505060405180910390f35b3480156101cb57600080fd5b506101d46102cf565b604051808273ffffffffffffffffffffffffffffffffffffffff1673ffffffffffffffffffffffffffffffffffffffff16815260200191505060405180910390f35b6000600460009054906101000a900473ffffffffffffffffffffffffffffffffffffffff1673ffffffffffffffffffffffffffffffffffffffff163373ffffffffffffffffffffffffffffffffffffffff161461027257600080fd5b81600560006101000a81548173ffffffffffffffffffffffffffffffffffffffff021916908373ffffffffffffffffffffffffffffffffffffffff16021790555060019050919050565b600460149054906101000a900460ff1681565b600460009054906101000a900473ffffffffffffffffffffffffffffffffffffffff168156fea165627a7a72305820f525260e9f822937a5cd8047277cec9ec5979449d3bb3f7e59fe562252a9d6cd0029",
  "source": "pragma solidity 0.5.8;\n\nimport \"./storage.sol\";\n\ncontract Proxy is Storage {\n\n\n\t//  INHERITED FROM STORAGE\n\t// \t------------------------------------------\n\t//  mapping (string => uint) uintStorage;\n\t//  mapping (string => address) addressStorage;\n\t//  mapping (string => string) stringStorage;\n\t//  mapping (string => bool) boolStorage;\n\t//  address public owner;\n\t//  bool public _initialized;\n\n\n\taddress private functionalityContract;\n\n\tconstructor(address _functionalityContract) public {\n\t\trequire (_functionalityContract != address(0));\n\t\tfunctionalityContract = _functionalityContract;\n\t}\n\n\tfunction upgradeFunctionalityContract (address _newFunctionalityContract) public onlyOwner returns(bool) {\n\t\tfunctionalityContract = _newFunctionalityContract;\n\t\treturn true;\n\t}\n\t\n\n\n\t//FALLBACK FUNCTION to pass all calls to functionlity contract\n\tfunction () payable external {\n\n\t\taddress implementation = functionalityContract;\n\t\trequire(functionalityContract != address(0));\n\t\tbytes memory data = msg.data;\n\n\t\t//DELEGATECALL EVERY FUNCTION CALL\n\t\tassembly {\n\t\t\tlet result := delegatecall(gas, implementation, add(data, 0x20), mload(data), 0, 0)\n\t\t\tlet size := returndatasize\n\t\t\tlet ptr := mload(0x40)\n\t\t\treturndatacopy(ptr, 0, size)\n\t\t\tswitch result\n\t\t\tcase 0 {revert(ptr, size)}\n\t\t\tdefault {return(ptr, size)}\n\t\t}\n\t\t\n\t}\n\n\t\n\n}\t",
  "sourcePath": "/Users/ibek/Documents/code/smart-contracts-best-practices/upgradeable2/contracts/proxy.sol",
  "compiler": {
    "name": "solc",
    "version": "0.5.8+commit.23d335f2.Emscripten.clang"
  },
  "schemaVersion": "3.0.11",
  "updatedAt": "2019-08-04T19:30:35.705Z",
  "devdoc": {
    "methods": {}
  },
  "userdoc": {
    "methods": {}
  }
}