{
  "contractName": "Proxy",
  "abi": [
    {
      "inputs": [
        {
          "name": "_functionalityContract",
          "type": "address"
        }
      ],
      "payable": false,
      "stateMutability": "nonpayable",
      "type": "constructor"
    },
    {
      "payable": true,
      "stateMutability": "payable",
      "type": "fallback"
    },
    {
      "constant": false,
      "inputs": [
        {
          "name": "_newFunctionalityContract",
          "type": "address"
        }
      ],
      "name": "upgrade",
      "outputs": [
        {
          "name": "",
          "type": "bool"
        }
      ],
      "payable": false,
      "stateMutability": "nonpayable",
      "type": "function"
    },
    {
      "constant": true,
      "inputs": [],
      "name": "getFuncAddress",
      "outputs": [
        {
          "name": "",
          "type": "address"
        }
      ],
      "payable": false,
      "stateMutability": "view",
      "type": "function"
    },
    {
      "constant": true,
      "inputs": [],
      "name": "getOwner",
      "outputs": [
        {
          "name": "",
          "type": "address"
        }
      ],
      "payable": false,
      "stateMutability": "view",
      "type": "function"
    }
  ],
  "bytecode": "0x608060405234801561001057600080fd5b506040516020806104718339810180604052602081101561003057600080fd5b8101908080519060200190929190505050600073ffffffffffffffffffffffffffffffffffffffff168173ffffffffffffffffffffffffffffffffffffffff16141561007b57600080fd5b80600560006101000a81548173ffffffffffffffffffffffffffffffffffffffff021916908373ffffffffffffffffffffffffffffffffffffffff16021790555033600460006101000a81548173ffffffffffffffffffffffffffffffffffffffff021916908373ffffffffffffffffffffffffffffffffffffffff160217905550506103648061010d6000396000f3fe6080604052600436106100345760003560e01c80630900f01014610127578063893d20e814610190578063df651e5e146101e7575b6000600560009054906101000a900473ffffffffffffffffffffffffffffffffffffffff169050600073ffffffffffffffffffffffffffffffffffffffff16600560009054906101000a900473ffffffffffffffffffffffffffffffffffffffff1673ffffffffffffffffffffffffffffffffffffffff1614156100b757600080fd5b60606000368080601f016020809104026020016040519081016040528093929190818152602001838380828437600081840152601f19601f820116905080830192505050505050509050600080825160208401855af43d604051816000823e8260008114610123578282f35b8282fd5b34801561013357600080fd5b506101766004803603602081101561014a57600080fd5b81019080803573ffffffffffffffffffffffffffffffffffffffff16906020019092919050505061023e565b604051808215151515815260200191505060405180910390f35b34801561019c57600080fd5b506101a56102e4565b604051808273ffffffffffffffffffffffffffffffffffffffff1673ffffffffffffffffffffffffffffffffffffffff16815260200191505060405180910390f35b3480156101f357600080fd5b506101fc61030e565b604051808273ffffffffffffffffffffffffffffffffffffffff1673ffffffffffffffffffffffffffffffffffffffff16815260200191505060405180910390f35b6000600460009054906101000a900473ffffffffffffffffffffffffffffffffffffffff1673ffffffffffffffffffffffffffffffffffffffff163373ffffffffffffffffffffffffffffffffffffffff161461029a57600080fd5b81600560006101000a81548173ffffffffffffffffffffffffffffffffffffffff021916908373ffffffffffffffffffffffffffffffffffffffff16021790555060019050919050565b6000600460009054906101000a900473ffffffffffffffffffffffffffffffffffffffff16905090565b6000600560009054906101000a900473ffffffffffffffffffffffffffffffffffffffff1690509056fea165627a7a723058203b03efebedff7516fa627de41bb6c8493328631cb55d9784f4592fb79e5822f60029",
  "source": "pragma solidity 0.5.8;\n\nimport \"./storage.sol\";\n\ncontract Proxy is Storage {\n\n\n\taddress private functionalityContract;\n\n\tmodifier onlyOwner() {\n\t\t\trequire(msg.sender == owner);\n\t\t\t_;\n\t}\n\n\tconstructor(address _functionalityContract) public {\n\t\trequire (_functionalityContract != address(0));\n\t\tfunctionalityContract = _functionalityContract;\n\t\towner = msg.sender;\n\t}\n\n\tfunction upgrade (address _newFunctionalityContract) public onlyOwner returns(bool) {\n\t\tfunctionalityContract = _newFunctionalityContract;\n\t\treturn true;\n\t}\n\n\tfunction getFuncAddress() public view returns(address) {\n\t\treturn functionalityContract;\n\t}\n\n\tfunction getOwner() public view returns(address) {\n\t\treturn owner;\n\t}\n\n\t//FALLBACK FUNCTION to pass all calls to functionality contract\n\tfunction () payable external {\n\n\t\taddress implementation = functionalityContract;\n\t\trequire(functionalityContract != address(0));\n\t\tbytes memory data = msg.data;\n\n\t\t//DELEGATECALL EVERY FUNCTION CALL\n\t\tassembly {\n\t\t\tlet result := delegatecall(gas, implementation, add(data, 0x20), mload(data), 0, 0)\n\t\t\tlet size := returndatasize\n\t\t\tlet ptr := mload(0x40)\n\t\t\treturndatacopy(ptr, 0, size)\n\t\t\tswitch result\n\t\t\tcase 0 {revert(ptr, size)}\n\t\t\tdefault {return(ptr, size)}\n\t\t}\n\n\t}\n\n\n\n}\n",
  "sourcePath": "/Users/esengulov/Documents/code/smart-contracts-best-practices/upgradeable2/contracts/proxy.sol",
  "compiler": {
    "name": "solc",
    "version": "0.5.8+commit.23d335f2.Emscripten.clang"
  },
  "schemaVersion": "3.0.11",
  "updatedAt": "2019-08-14T09:22:01.000Z",
  "devdoc": {
    "methods": {}
  },
  "userdoc": {
    "methods": {}
  }
}