{
  "contractName": "Storage",
  "abi": [
    {
      "constant": true,
      "inputs": [],
      "name": "_initialized",
      "outputs": [
        {
          "name": "",
          "type": "bool"
        }
      ],
      "payable": false,
      "stateMutability": "view",
      "type": "function"
    },
    {
      "constant": true,
      "inputs": [],
      "name": "owner",
      "outputs": [
        {
          "name": "",
          "type": "address"
        }
      ],
      "payable": false,
      "stateMutability": "view",
      "type": "function"
    }
  ],
  "bytecode": "0x608060405234801561001057600080fd5b50610104806100206000396000f3fe6080604052348015600f57600080fd5b506004361060325760003560e01c80633072cf601460375780638da5cb5b146057575b600080fd5b603d609f565b604051808215151515815260200191505060405180910390f35b605d60b2565b604051808273ffffffffffffffffffffffffffffffffffffffff1673ffffffffffffffffffffffffffffffffffffffff16815260200191505060405180910390f35b600460149054906101000a900460ff1681565b600460009054906101000a900473ffffffffffffffffffffffffffffffffffffffff168156fea165627a7a72305820f894394a387ba31067b249320a394325806f536de0496fbc2b7ba8601c8f55710029",
  "source": "pragma solidity 0.5.8;\n\n\ncontract Storage {\n\n    mapping (string => uint) uintStorage;\n    mapping (string => address) addressStorage;\n    mapping (string => string) stringStorage;\n    mapping (string => bool) boolStorage;\n\n    address public owner;\n  \tbool public _initialized;\n   \n}",
  "sourcePath": "/Users/ibek/Documents/code/smart-contracts-best-practices/upgradeable2/contracts/storage.sol",
  "compiler": {
    "name": "solc",
    "version": "0.5.8+commit.23d335f2.Emscripten.clang"
  },
  "schemaVersion": "3.0.11",
  "updatedAt": "2019-08-05T18:37:37.999Z",
  "devdoc": {
    "methods": {}
  },
  "userdoc": {
    "methods": {}
  }
}